:020000040002F8
:1070000000640020C1730200C9730200CB73020048
:10701000CD730200CF730200D173020000000000A4
:10702000000000000000000000000000D373020018
:10703000D573020000000000D7730200D97302006C
:107040000D800200DB730200AD820200DB730200E0
:10705000DB730200DB730200697F0200DB73020056
:10706000DB730200DB730200DB730200DB730200E0
:10707000DB730200DB730200DB730200DB730200D0
:10708000DB73020065800200DB730200DB73020029
:10709000DB730200DB730200D5800200DB730200A9
:1070A000DB730200DB730200DB730200DB730200A0
:1070B000DB730200DB730200000000000000000030
:1070C000DB730200DB730200DB730200DB73020080
:1070D000DB730200DB730200DB730200DB73020070
:1070E000DB730200DB730200DB73020000000000B0
:1070F00000000000DB73020000000000DB730200F0
:10710000000000000000000000000000000000007F
:10711000000000000000000000000000000000006F
:10712000000000000000000000000000000000005F
:10713000000000000000000000000000000000004F
:10714000000000000000000000000000000000003F
:10715000000000000000000000000000000000002F
:10716000000000000000000000000000000000001F
:10717000000000000000000000000000000000000F
:1071800000000000000000000000000000000000FF
:1071900000000000000000000000000000000000EF
:1071A00000000000000000000000000000000000DF
:1071B00000000000000000000000000000000000CF
:1071C00000000000000000000000000000000000BF
:1071D00000000000000000000000000000000000AF
:1071E000000000000000000000000000000000009F
:1071F000000000000000000000000000000000008F
:10720000DFF80CD000F06EFC0048004715B2020019
:107210000064002030B450E8012F93B2C4892344A5
:107220008489A34228BF1B1B0489A34202BFBFF36A
:107230002F8F002007E0C3EA020340E80134002C4E
:10724000E9D14FF001000A6030BC704750E8012FCF
:10725000C2EA024240E801210029F7D1704730B468
:1072600050E8022F1FFAA2F3C488A34202BFBFF363
:107270002F8F00200DE0C48923448489A34228BFB6
:107280001B1BC2EA034340E80234002CE8D14FF054
:1072900001000A6030BC704750E8022FC2EA224267
:1072A00040E802210029F7D17047034653E8022F36
:1072B000D988B2EB324F4FF0000017BF92B241EACB
:1072C000014142EA014104E05A68B2EB324F08BF83
:1072D000012043E80212002AE8D1704730B4044686
:1072E00054E8000F0D4644E80053002BF8D1156018
:1072F00030BC704730B4044654E8000F40EA010542
:1073000044E80053002BF7D1156030BC704730B40F
:10731000044654E8000F00EA010544E80053002B3E
:10732000F7D1156030BC704730B4044654E8000F04
:1073300080EA010544E80053002BF7D1156030BC0A
:10734000704730B4044654E8000F00EB010544E8F0
:107350000053002BF7D1156030BC704730B40446A1
:1073600054E8000FA0EB010544E80053002BF7D1CF
:10737000156030BC704770B404464FF0000054E80C
:10738000006F0D68AE4207BF44E80023012044E8C7
:1073900000630E60002B1CBF0020F0E770BC70473C
:1073A00030B4044654E8000F88422CBF451A054605
:1073B00044E80053002BF5D1156030BC7047000045
:1073C0000648804706480047FEE7FEE7FEE7FEE77F
:1073D000FEE7FEE7FEE7FEE7FEE7FEE7D9800200F4
:1073E000017202002DE9F05F0546002092469B469F
:1073F00088460646814640241BE0284641464746CB
:10740000224600F065F953465A46C01A914110D3FE
:1074100011461846224600F016F82D1A67EB0108AF
:107420004F4622460120002100F00DF817EB00091D
:107430004E41201EA4F10104DFDC484631462A46B5
:107440004346BDE8F09F202A04DB203A00FA02F10F
:10745000002070479140C2F1200320FA03F3194342
:1074600090407047004870479CFF020010B50446EA
:10747000FFF7F8FF0068005D00F0010010BD40EA72
:1074800001039B0703D009E008C9121F08C0042AA2
:10749000FAD203E011F8013B00F8013B521EF9D289
:1074A0007047D2B201E000F8012B491EFBD27047B1
:1074B0000022F6E710B513460A4604461946FFF7C0
:1074C000F0FF204610BD421C10F8011B0029FBD123
:1074D000801A704730B504460020034600E05B1C6C
:1074E000934203D2E05CCD5C401BF8D030BD034634
:1074F00011F8012B00F8012B002AF9D1184670472A
:1075000030B505460020034600E05B1C934205D2DF
:10751000EC5CC85C201A01D1002CF6D130BD000013
:107520000FB400B58DB010A909900B9000914FF0E9
:10753000FF300A9000200C900548069005480790FF
:107540006A4609A80F9900F0E7F80DB05DF814FB42
:1075500035770200537702002DE9FF5F1D464FF09B
:10756000FF3BD5E9014691465F464FF00008A96907
:107570007F1C01988847296A824688470028F6D1EF
:10758000BAF1FF3F0CD024F4C064002E19DD600670
:1075900014D5BAF12B0F09D0BAF12D0F0ED103E09B
:1075A000584604B0BDE8F09F44F48064A9697F1C8C
:1075B00001988847761E8246002E02DDBAF1300F10
:1075C00003D0B9F1000F26D032E0A969761E44F449
:1075D00000747F1C019888478246002E05DDBAF1B1
:1075E000780F06D0BAF1580F03D0B9F1000F10D0C0
:1075F0001EE0B9F1000F02D0B9F1100F18D1A9693E
:10760000761E24F400747F1C01988847824610205F
:1076100002E0082000E00A20814609E008FB090892
:10762000A969761E44F400747F1C0198884782463D
:10763000002E05DD4946504600F05AF80028EDDAE4
:10764000E96901988847A00502D46FF00100A8E716
:10765000E00725D1600613D5600502D5C8F100000A
:1076600000E0404629680A1D2A600968220501D504
:10767000087015E0220701D5088011E008600FE0CE
:107680002868011D29600068210502D580F8008066
:1076900006E0210702D5A0F8008001E0C0F80080D4
:1076A00038467EE730B50B460146002020220124F3
:1076B00009E021FA02F59D4205D303FA02F5491BC0
:1076C00004FA02F52844151EA2F10102F1DC30BDD6
:1076D000202A04DB203A21FA02F00021704721FA27
:1076E00002F3D040C2F1200291400843194670478E
:1076F0003A2800D2303820F02002412A01D3A2F1EA
:107700003700884201D34FF0FF30704702681144C0
:107710001378016018467047D160044951610449EB
:10772000116200211161114600F000BA0D770200CC
:107730006D740200426842B1016811F8013B23B147
:10774000521EC0E90012184670470121C160881E10
:10775000704742685AB1C368016843B983688B4275
:1077600005D0491E521CC0E90012002070474FF09E
:10777000FF3070472DE9FE4F804681EA0300C00FBD
:107780000C46009021F0004123F00045B8EB0200C8
:10779000A94105D24046214690461C460B4602466A
:1077A00023F00040104347D0270DC7F30A00C3F36E
:1077B0000A510290401A019040286BDAC3F313007B
:1077C00040F4801B0098924620B10023D2EB030ABC
:1077D00063EB0B0B01985946C0F140025046FFF78E
:1077E00032FE06460D4650465946019A00F08CF985
:1077F00010EB08006141002487EA115284EAE77324
:107800001A4340D0009A62B3019A012A4FEA075204
:1078100015DC001B61EB02014FF0004202EA075247
:10782000CDE90042001C41F5801132462B4600F0A4
:1078300022FB03B0BDE8F08F40462146F9E7001B6C
:1078400061EB0201001C41F5801300185B41201818
:10785000A2F5001747EB030140EAD570B6196D4158
:1078600011E06D084FEA360645EAC0754FEA075247
:10787000001B61EB0201001C41F5801149084FEA31
:1078800030000019514132462B4603B0BDE8F04F9D
:1078900000F0E2BA0098012240000023D0EB02027F
:1078A00063EBE073009821464FEAE074B8EB000008
:1078B00061EB0401E9E783F000435BE781F00041FD
:1078C00058E72DE9FE4F81EA030404F0004421F05B
:1078D000004100944FF0000B23F0004350EA0104F4
:1078E0005ED052EA03045BD0C3F30A54C1F30A55D5
:1078F0002C44A4F2F3340194A0FB0254C1F313010D
:1079000041F48011C3F3130343F4801301FB0244D9
:1079100000FB034E840A970A44EA815447EA8357DE
:10792000A4FB076802958D0A05FB07854FEA932C97
:1079300004FB0C542705029D4FEA065847EA163708
:10794000B5EB08056EEB070C870E920E47EA811720
:1079500042EA8312A7FB0201B6EB0B0164EB0004C1
:107960002B0D43EA0C335E1844EB1C50DA465146AB
:10797000E7FB0201C5F313044FEA0B3343EA145348
:107980004FEA0432019C43EA0603A4F10C0402947A
:10799000009CCDE900B400F06EFA03B0BDE8F08FB2
:1079A00000200146F9E72DE9F04D81EA030404F0D7
:1079B000004B21F0004514464FF0000A23F000412F
:1079C00050EA050220D054EA01021DD0C5F30A573F
:1079D0000246C5F31303C1F31300C1F30A5640F482
:1079E000801543F48013A7EB0608101BD64608F257
:1079F000FD3873EB050002D308F1010801E092188D
:107A00005B41B8F1000F03DA00200146BDE8F08DBC
:107A100000204FF48011064684460EE0171B73EBDE
:107A2000050705D3121B63EB050306434CEA010C63
:107A300049084FEA300092185B4150EA0107EDD146
:107A400052EA030012D082EA040083EA05010843E7
:107A500005D0101BAB4106D20122002306E0002214
:107A60004FF0004302E06FF0010253101AEB0600E2
:107A70004CEB085110EB0A0041EB0B01BDE8F04D57
:107A800000F0EAB9C1F30A52C1F3130140F2FF3327
:107A900041F480119A4202DA00200146704740F218
:107AA00033439A42A2F2334202DC5242FFF710BE45
:107AB000FFF7C9BC30B5041E71F1000404DB4FF0C0
:107AC0000044404264EB0101141E73F1000405DB25
:107AD0001C464FF00043524263EB0403994208BF37
:107AE000904230BD064C074D06E0E06840F00103CF
:107AF00094E8070098471034AC42F6D3FFF784FBB4
:107B00001409030034090300202A06DBCB17203AAE
:107B100041FA02F043EAE07306E041FA02F3D04092
:107B2000C2F1200291400843194670472DE9F34FF6
:107B30008BB04FF0000801F10C000C464FF0010B28
:107B400046460DF1080A01906269012101989047AB
:107B5000051E2DD0252D2CD0216A8847C0B1626921
:107B6000012101989047216A88470028F7D1411EDA
:107B700062690198904700E0761CA1690B988847DC
:107B8000216A88470028F7D1E1690B988847DBE72D
:107B9000A1690B9888470746A84201D1761CD3E714
:107BA000E1690B9888477F1C02D1B8F1000F6FD0B4
:107BB00046E1002762693D463946019890472A28E8
:107BC00004D162690121019890470125DFF8849270
:107BD0006269012101989047A0F130010A290AD277
:107BE0004F45E5DC07EB870100EB4107303FDFD471
:107BF00045F01005ECE7E90601D46FF000476C286A
:107C00000AD04C2814D0682815D06A280DD07428C2
:107C10001CD07A281AD01DE0626901210198904792
:107C20006C2802D045F0040514E045F002050DE093
:107C300045F020050AE06269012101989047682813
:107C400002D045F0080505E045F4006562690121B0
:107C500001989047C4E9015765283DD019DC5828A0
:107C60007AD00CDC452837D004DC252826D04128E2
:107C700031D131E046282FD047282CD12CE05B2889
:107C800077D0612828D063287CD0642823D15AE09B
:107C9000D0E06F2848D008DC66281DD067281BD0AC
:107CA000692821D06E2816D127E0702845D0732886
:107CB00068D0752847D078280DD14DE0A1690B9880
:107CC0008847054625283FF469AFE1690B98884746
:107CD0006D1C3FF46AAFB3E023466A466FF00100C3
:107CE0000B99AFF300809EE045F040006060A8076C
:107CF00023464FF0000236D43EE0E8077FF447AF5A
:107D00002068011D21600068290501D506701BE768
:107D1000290701D5068017E7A90703D5F117C0E9A0
:107D2000006111E706600FE745F040006060A807BA
:107D300023464FF0080216D41EE040F60E0125EA55
:107D40000100606016E045F040006060A80723462F
:107D50004FF00A0207D40FE045F040006060A8072A
:107D600008D5234610226FF001000B99AFF3008075
:107D700059E007E0234610226FF001000B99FFF74E
:107D8000EBFB50E04FF000094F464B46632802D012
:107D90005B2806D040E0E80601D40120A06001275E
:107DA0003AE062690121019890475E2805D14FF0C1
:107DB00001096269494601989047216939B9002152
:107DC0000A46534643F82120491C0829FADBB0B380
:107DD000216969B9C11700EBD16253110AEB830124
:107DE00022F01F02821A01200B68904003430B60AF
:107DF00062690121019890475D28E8D1B9F1000F2F
:107E000009D00020514651F82020D24341F82020CB
:107E1000401C0828F7DB02AB224600976FF00100F8
:107E20000B99AFF3008000280CDA401C08D1BBF19D
:107E3000000F05D04FF0FF300DB0BDE8F08FFFE729
:107E40004046F9E7E90701D108F1010806444FF07F
:107E5000000B79E6CCCCCC0C10B5141E73F10004E9
:107E600008DA401C41F1000192185B411A4301D12C
:107E700020F0010010BD2DE9F04D92469B4611B156
:107E8000B1FA81F202E0B0FA80F220329046FFF7B8
:107E9000DAFA04460F4640EA0A0041EA0B0153466B
:107EA0005A46084313D0114653EA010019D0C8F1CD
:107EB00040025046FFF70CFC05460E465046594618
:107EC0004246FFF7C0FA084305D0012004E02046EF
:107ED0003946BDE8F08D0020054346EAE0762C43A4
:107EE00037430A986305E40AA0EB08000022FD0A64
:107EF00044EA47540A3002D500200146E9E701056B
:107F000010196941DDE9084500196941BDE8F04DE6
:107F1000A2E770B58C1810F8015B15F0070301D1CA
:107F200010F8013B2A1106D110F8012B03E010F8DC
:107F3000016B01F8016B5B1EF9D12B0705D40023FF
:107F4000521E0DD401F8013BFAE710F8013BCB1AA1
:107F5000921C03E013F8015B01F8015B521EF9D596
:107F6000A142D8D3002070BD2DE9FC410025DFF8E7
:107F7000948000954FF4807601242F460195304679
:107F800004F026FD38B1D8F80403204203D030466F
:107F900004F014FD2543361D64007F1CB6B2082F83
:107FA000EDD34FF4BE74204604F012FD48B12046D4
:107FB00004F004FD45F000456A460221002004F06B
:107FC00065FC15F0FF0F16D0012600242E420ED0BE
:107FD00008EB8401D1F81005D1F81015C0F3052085
:107FE000094AC1F3014152F8242002B190477600BA
:107FF000641C082CEAD3002D02DA684606F09EFACB
:10800000BDE8FC81006000407439002070B54FF479
:108010008076304603F0DAFE114CB50560B130468B
:1080200003F0DBFE0120C5F80803607920B90120C8
:1080300060712168002088474FF48276304603F053
:10804000C5FE00280AD0304603F0C7FE0220C5F85E
:1080500008032168BDE870400120084770BD00009A
:108060008830002002490248091F09680068084753
:10807000F430002000F042B970B50E46144900EB10
:10808000400001EBC0051446E86A183520B101280C
:108090000FD0022805D113E0284600F063F9A04272
:1080A00001D2002411E022463146284600F092F920
:1080B0000BE0284600F056F9A042F4D20446F2E75D
:1080C0003146284600F059F90446204670BD0000AC
:1080D0007841002005F0EABA70B54FF080520124D3
:1080E000D2E94C100023082906D1CD06C5F80C3181
:1080F000C5F810315E4D2B60082955D15D4D2D68B6
:108100005D4E35605B4D2D1D2D68361D3560594D1A
:1081100008352D68361D3560564D0C352D68361DD9
:108120003560544D10352D68361D3560514D143570
:108130002D68361D35604F4D18352D684E4E203652
:1081400035604C4D1C352D68361D3560494D203548
:108150002D68361D3560474D24352D68361D356038
:10816000444D28352D68361D3560424D2C352D681F
:10817000361D35603F4D30352D683F4E40363560F9
:108180003C4D34352D68361D35603A4D38352D68F7
:10819000361D3560374D3C352D68361D3560354D03
:1081A00040352D68361D3560082904D1050002D1FF
:1081B000334E324D3560082904D1050002D1314ECD
:1081C000FB253560082908D1050006D192F85862D0
:1081D0002D4A156866F303051560082904D10200CD
:1081E00002D12A4D8A012A60082906D1284801684F
:1081F000C90702D06FF0010101602648016841F40F
:1082000070010160BFF34F8FBFF36F8F4FF01021EC
:10821000D1F80002002803DBD1F80402002822DA9A
:108220001D4A14601D480468002CFCD01224C1F8BB
:1082300000420568002DFCD0C1F804420168002905
:10824000FCD0136001680029FCD0BFF34F8F1148A8
:108250007C380168124A01F4E06111430160BFF308
:108260004F8F00BFFDE710490E48086070BD000049
:10827000380500400404001020C500404881030078
:108280008C56004018F50040E40E00404096024035
:108290000004004088ED00E004E5014000E40140F6
:1082A0000400FA050090D0037431002001480068F2
:1082B00000470000903000200FB4F52170B50E4843
:1082C000FFF7F6F805ABF4210B48049A00F0CCF860
:1082D0000948FFF7F8F8084D2846FFF7F4F8064676
:1082E000002403E0285D00F035FF641CB442F9D39C
:1082F00070BC5DF814FB0000DC37002010B5124C98
:1083000002202061606111A0A06104F17800E061A9
:108310004FF4007020620020A06260620BA1A16493
:10832000E06204F51E71E1641021A065C4E9141037
:10833000E06509A1E01DFFF7DAF808A12046FFF784
:10834000D6F82020A07110BD784100205465726DD0
:10835000696E616C00000000525454005345474759
:10836000455200000269C1688A4203D88068401AF9
:10837000104400E0501A401E70472DE9F047C468D1
:108380001746894606464FF000083069A04201D9D9
:10839000051B02E0B168201A0D1AB0686D1E001BA3
:1083A000A84200D80546BD4200D33D4670682A4623
:1083B00020444946FFF763F8B0687F1B2C44A8446B
:1083C000A944A04200D10024F460002FDDD1404632
:1083D000BDE8F0872DE9F04104468846D4E902075C
:1083E000C51BE168606816460844B54206D9414697
:1083F000FFF745F8B819E060BDE8F0812A4641462C
:10840000FFF73DF8761B08EB050132466068FFF781
:1084100036F8E660F0E700000FB4054B10B503A98D
:10842000044A029800F01AF910BC5DF814FB000031
:10843000E7AA0200043100200FB41CB50246002058
:1084400007AC00290BD0491ECDE90021054B6A4637
:108450002146069800F002F9009A002111701CBC18
:108460005DF814FB8B8D02007CB5044600201D4690
:10847000164600290BD0491ECDE90041044B6A463F
:108480002946304600F0EAF8009A002111707CBDC0
:108490008B8D020002E008C8121F08C1002AFAD121
:1084A00070477047002001E001C1121F002AFBD174
:1084B000704700000121202803DA8140054801406F
:1084C00003E0402802DA2038814009B101207047DA
:1084D00000207047FC06FFBD2DE9FF5F82B0002140
:1084E000DDE90430020DDDF840B0034318D044F656
:1084F0001050A2F2FF3242431514119801281FD0E8
:10850000A5EB0B00401C5FEA000A4FF000064E4F3F
:10851000DFF83891B046504615D5CAF1000413E093
:10852000119801244AA3012801D16FEA0B01029896
:10853000119AC0E90031C0E9024206B0BDE8F09FDF
:10854000CBF10000DFE704460021404A491842EB26
:108550000450CDE9001012E0E00707D032463B4658
:1085600040464946FFF7ADF98046894632463B46CC
:1085700010461946FFF7A5F906460F466410002C71
:10858000EAD1DDE90401DDE90023BAF1000F06DAE2
:10859000FFF797F942464B46FFF793F905E0FFF7DF
:1085A00002FA42464B46FFF7FEF904460E46002209
:1085B000284BFFF77FFA03D84FF0FF30014607E062
:1085C0000022254B20463146FFF7D4F8FFF75AFA30
:1085D000102409E0002C0ADB0A220023FEF702FF28
:1085E000039B30321A55641E50EA0102F2D1641C1A
:1085F000039AC4F111031444119A012A03D00122F1
:1086000008430DD10AE0084304D000204FF0110BBD
:10861000119072E7A3EB0B056D1E0DE05B4504DDC9
:108620004FF0000205F1010504E003DA4FF000020B
:10863000A5F10105002AECD002981199C0E9023198
:10864000C0E9004579E70000000014400000F03F59
:10865000300000000000F0430000E03F2DE9FF4F34
:1086600095B09B468946064600250FE2252877D11E
:1086700000242746F84A0121059400E0044316F837
:10868000013F203B01FA03F01042F7D130782A284D
:1086900011D06FF02F033078A0F13002092A16D8DC
:1086A000059A44F0020402EB820203EB42021044FA
:1086B000761C0590EFE759F8042B0592002A03DA9F
:1086C000504244F40054059044F00204761C307883
:1086D0002E2816D116F8010F44F004042A280DD0D4
:1086E0006FF02F023078A0F13003092B09D807EB87
:1086F000870302EB4303C718761CF3E759F8047BA2
:10870000761C30786C280FD006DC4C2817D06828EF
:108710000DD06A2814D104E0742810D07A280FD123
:108720000DE044F400140AE044F4801401E044F441
:1087300040147278824202D104F58014761C761CB3
:10874000307866280BD013DC582877D009DC002855
:1087500075D04528F6D04628F4D047281AD19DE197
:1087600018E0632835D0642879D0652812D195E1C6
:10877000702873D008DC6728F1D069286FD06E2884
:108780000DD06F2806D1B5E073282CD0752875D090
:10879000782874D05A46179990476D1C75E1C4F338
:1087A0000250022809D003280DD0D9F8001004285F
:1087B0000DD00D6009F1040967E1D9F80010EA173E
:1087C000C1E90052F6E7D9F800100D80F2E70D700C
:1087D000F0E719F8041B8DF8001000208DF8010057
:1087E000EA46012003E059F804AB4FF0FF3061077F
:1087F0004FF0000102D40DE008F101018846B942B2
:108800000FDA8045F8DB1AF808100029F4D108E0E7
:1088100008F1010188468142FADB1AF808100029A4
:10882000F6D105985B46A0EB080721463846179A13
:1088300000F094FA284400EB080507E04DE029E138
:108840000DE01AF8010B5A4617999047B8F1010844
:10885000F7D25B4621463846179A13E142E00A22D6
:108860000092C4F302524FF0000A022A08D059F8CD
:1088700004CB032A4FEAEC710AD00DE029E02AE08C
:1088800009F1070121F00702F2E802C1914609E06F
:108890000FFA8CFC4FEAEC71042A03D14FFA8CFCDE
:1088A0004FEAEC71002907DA0A460021DCF1000CDE
:1088B00061EB02012D2202E0220504D52B228DF866
:1088C0000420012203E0E20701D02022F7E79046CE
:1088D00059E00A2102E010220DE010214FF0000AB9
:1088E00000910BE010224FF0000A44F00404082726
:1088F000009203E008224FF0000A0092C4F30252F3
:10890000022A05D059F804CB0021032A08D009E037
:1089100009F1070121F00702F2E802C1914605E0E2
:108920001FFA8CFC042A01D10CF0FF0C4FF0000858
:10893000220728D5702806D0009B83F0100353EA45
:108940000A0305D00EE040228DF80420012208E041
:108950005CEA010206D030228DF804208DF8050073
:1089600002229046009B83F0080353EA0A030AD1CF
:108970005CEA010201D1620705D530228DF804209E
:108980004FF001087F1E582804D034A003900EA891
:1089900002900DE036A0F9E753466046009AFEF7D4
:1089A00021FD84460398825C0298401E029002706A
:1089B0005CEA0100F0D1029806A9081A00F1200A29
:1089C000600702D524F4803400E00127574502DD1A
:1089D000A7EB0A0000E0002000EB0A0100900598D8
:1089E0004144401A0590E00306D45B462146179A9D
:1089F000059800F0B3F90544002706E001A85A469F
:108A0000C05D179990476D1C7F1C4745F6DBE0035E
:108A10000CD55B462146179A059800F09FF905444E
:108A200004E030205A46179990476D1C0099481E63
:108A300000900029F5DC08E0029802995A46007877
:108A4000491C0291179990476D1CBAF10001AAF1D7
:108A5000010AF1DC65E10000092801003031323300
:108A6000343536373839616263646566000000006A
:108A70003031323334353637383941424344454654
:108A80000000000000F058F90544761C30780028FA
:108A90007FF4ECAD19B02846BDE8F08F620700D432
:108AA000062709F1070222F0070CFCE80223E14641
:108AB00003F000485FEA080C02D00FF2702C0DE0C2
:108AC0005FEA045C02D50FF2682C07E05FEAC47C21
:108AD00002D00FF2602C01E0AFF2700C4FF0FF38C3
:108AE00023F00043CDF850C065280CD006DC4528A3
:108AF00009D046281DD047283DD13DE0662818D032
:108B000067287ED138E00021112F01DB112000E021
:108B1000781CCDE9000106A90EA8FFF7DDFCDDE910
:108B20000F010E9A03910021009207F1010A0491AE
:108B30004DE04FF000400097CDE9011006A90EA8C6
:108B4000FFF7CAFCDDE90F0203920E9B1199002288
:108B5000DDF80CA00093049211B9791C00EB010A16
:108B6000B7EB0A0004D4C0F1FF3007F1010A04900A
:108B7000AAEB0700019044E0012F00DA0127002151
:108B8000112F01DD112000E03846CDE9000106A9D2
:108B90000EA8FFF7A1FCDDE90F010E9A0391002159
:108BA00004910092BA4621070CD40399514500DA8A
:108BB0008A46BAF1010F05DD009AAAF10101515C64
:108BC000302908D0B84202DA10F1040F06DA012188
:108BD000CDE9011015E0AAF10101E9E7002805DC63
:108BE000049901440491AAEB000102E0411C5145A3
:108BF00000DD8A460499401A401C01904FF0004065
:108C00000290200704D40198504501DBCDF8048080
:108C100000208DF84F0002980DF14F07B0F1004F82
:108C200025D02B200E9002984FF0020800280CDA75
:108C3000404202902D200E9007E00A210298FEF794
:108C400031FD3031029007F8011DB8F10001A8F1A3
:108C50000108F2DC02980028EFD1791E0E98087006
:108C6000307800F0200040F0450007F8020D12A80F
:108C7000C01B00F107081498007800B1012000EB38
:108C80000A01019801EBE07105984144401A401E29
:108C90000590E00306D45B462146179A059800F03C
:108CA0005DF805441498007818B15A461799904712
:108CB0006D1CE00324D55B462146179A059800F009
:108CC0004DF805441CE00498002807DBDDE90301AA
:108CD000884203DD0098405C179901E01799302025
:108CE0005A469047049805F10105401C04900198EC
:108CF000401E019004D12E205A46179990476D1CB2
:108D0000BAF10001AAF1010ADDDC05E017F8010B58
:108D10005A46179990476D1CB8F10001A8F1010857
:108D2000F4DC5B462146179A0598ABE62D0000005F
:108D30002B000000200000002DE9F0410446002532
:108D40001E461746880404D405E039462020B04763
:108D50006D1C641EF9D52846BDE8F0812DE9F0416F
:108D6000044600251E469046C80301D5302700E082
:108D70002027880404D505E041463846B0476D1CDD
:108D8000641EF9D52846BDE8F0814A68002A06D05D
:108D90000A68531C0B6010704868401E486070479A
:108DA000800701D00020704701207047C3688B42C4
:108DB00006D811440069491E814201D8012070473C
:108DC0000020704710B501220221002001F004F8B4
:108DD00008B1072810D107220221012000F0FCFF72
:108DE00008B1072808D100210A22084600F0F4FF44
:108DF00008B1072800D1002010BD022000F000BFFC
:108E000070B50024064D06E06868012110F83400B2
:108E100004F072FD641C28788442F5D3002070BDF4
:108E200098300020F8B516460C4605460A2A01D2AD
:108E30000720F8BD04F058FE18B904F019FE002808
:108E4000F7D1134F202113487D603C70BE60FEF7C0
:108E50002FFB0020C7E904000F4E0DE005EBC40016
:108E60003168009181788DF8011000780B4A6946CD
:108E700004F08EFD0028DCD1641EE4B2EED2BDE821
:108E8000F84005480021064A001D00F09FB8000088
:108E900098300020503A0020F8FB0200CDAE0200CE
:108EA0009DA4020072B604F02DF800BF03F060FE2E
:108EB0000028FBD111481249401AC408012000EBD8
:108EC000044010A103F070FF11480068C00700D0F3
:108ED00000BE022000EB04400EA103F065FFBFF3CB
:108EE0004F8F0B48E43801680E4A01F4E0611143EA
:108EF0000160BFF34F8F00BFFDE70000C40903000E
:108F000044090300466174616C206572726F7200DF
:108F1000F0ED00E053797374656D207265736574CC
:108F2000000000000400FA050EB500210091CDE913
:108F300001106A4644F20100FFF7B4FF0EBD10B500
:108F40008268C368934203D001F0BAFD002010BDCF
:108F5000052010BD29B112B1531E134203D00920C0
:108F600070470E2070470160838000218160C160DE
:108F70000846704710B58268C3689A1A83889A4277
:108F800003D801F0A7FD002010BD042010BD000093
:108F900010B509490022094803F058F908B1FFF754
:108FA000C3FF064805F0A4FB4FF0102040694FF0C6
:108FB00080500169406910BD28FE02007831002010
:108FC000014801F0AABB0000B83000203AB10068A7
:108FD0000129426100D00021016100207047072073
:108FE0007047000038B511480823582241680091A5
:108FF0000F49006802F034FB002815D10D4A69467C
:109000000D4801F08FFB04000ED101210A4801F048
:1090100004FC0123094A1946074801F056FB06499A
:10902000012008390870204638BD000000FC02000D
:10903000803A002069EB0200B8300020FFFF7F007B
:1090400070B50446007F0D4608B1002070BDA261D6
:1090500001F046FE401941F10001C4E90201206916
:1090600000B125612146BDE87040002006F09AB9A4
:10907000014600200877012006F094B970B50A4E29
:1090800001460A48B578FFF75AFF04464DB1002063
:10909000B070711C0122C81D02F016FF08B1FFF765
:1090A00043FF204670BD0000D4300020D83A002095
:1090B000F0B5244E89B01F460D00044672603FD0C3
:1090C000A888296882B22048FFF744FF002835D1DC
:1090D000A889A96882B21C481030FFF73BFF00281E
:1090E0002CD1202219496846FEF7C9F9606906901B
:1090F000207C00B101208DF814008DF81C70607C7C
:1091000000B10E208DF81500E0680290A068039071
:1091100020680190606800900A480D4A694608304E
:1091200002F09EFE002809D1B0702068401C05D0D6
:1091300004490122491CC81D02F0C6FE09B0F0BD59
:109140000720FBE7D4300020D83A002014FC0200AE
:10915000A1F5020010B501461048FFF70BFF04000F
:1091600019D10F480F4A0178515C19B1001D04F064
:109170004DFF02E00C3004F023FE60B908490748B7
:109180000839FFF7DCFE30B90549012208390448E7
:1091900002F0AAFE0446204610BD0000E83A002076
:1091A000DC3000207430002030B5EFF3108172B64F
:1091B0000D4A9468012324B10370002900D162B6DE
:1091C00030BD93604FF0E023D3F88051074C254029
:1091D0001560C3F88041D3F8844154605A17C3F82E
:1091E000842100220270E8E7F83A0020FC06FFBD67
:1091F0000B498A68002A11D000280FD1EFF31080A4
:1092000072B60B684FF0E022C2F800314B68C2F82A
:10921000043100228A60002800D162B67047000045
:10922000F83A002070B5054608680C46411C04D089
:1092300003F09DFB206803F0FDFA6068411C02D03A
:10924000002103F0E5FA2968A069C1F82405607DD2
:10925000227D29681043C1F86C05D4E90012286802
:10926000C0F81425C0F80C15207D012814D1A06881
:10927000411C02D0002103F0CBFAE068411C04D06D
:1092800003F075FBE06803F0D5FAD4E90212286810
:10929000C0F80825C0F8101570BD70B505460868FF
:1092A0000C46411C04D003F06CFB206803F0CCFAA0
:1092B0006068411C02D0002103F0B3FA2968A0695C
:1092C000C1F82405607D217D2A680843C2F86C0539
:1092D000D4E900122868C0F80C15C0F81425207DC8
:1092E000012814D1A068411C02D0002103F099FA92
:1092F000E068411C04D003F044FBE06803F0A4FAEA
:10930000D4E902122868C0F80825C0F8101570BD0D
:1093100070B5054621482249224A401AC108032057
:1093200000EB0140044620A103F042FD2046A5B118
:109330002A461FA103F03CFD06221FA1E81CFEF7F0
:10934000DFF880B106221EA1E81CFEF7D9F850B163
:10935000BDE870401CA0FEF7AFBFBDE87040114AE9
:109360001DA103F025BD2048007878B120460D4AA4
:109370001EA103F01DFD22481321008876DF48B1AD
:109380002046BDE870401FA103F00EBDBDE870404F
:1093900000F078BFBDE8704005F042BDC40903008D
:1093A00044090300E8FA02005B25735D0000000039
:1093B000636D643A2025730072657363616E00000B
:1093C00052455343414E0000415420636D64206573
:1093D00072726F722E0D0A005B25735D20646174DA
:1093E00061206E756C6C0000382A00205B25735D6F
:1093F000207374617274207363616E2E2E2E0000D0
:109400003C2A0020646973636F6E6E656374206626
:1094100061696C65642E000070B5E0B1DAB10024BA
:1094200002E0045D2C44A4B2651C8D4206D216886D
:10943000A642F6D8061976789E42F2D18C420AD21C
:10944000A31C005D9BB200B1401E0004000C02D0C2
:109450001C188C4201D9002070BD138070BD2DE90D
:10946000F0418AB006460020ADF8140013461020E3
:1094700088468DF804000D4606AA01A9184664DF47
:10948000A6B398BB9DF80400022804D0042807D096
:10949000102839D10DE003208DF81000022003E0E0
:1094A00005208DF8100004208DF81100002404AF71
:1094B0000FE007208DF810000620F5E73B5D05AAB8
:1094C00041463046FFF7A8FF641CE4B20546022C73
:1094D00004D2BDF814000028F0D003E0BDF8140059
:1094E000002812D080B2064400240BE00CE03019B2
:1094F0009DF8042006A9FDF7EDFF48B19DF8040092
:10950000204484B2AC42F2D300200AB0BDE8F0811E
:109510000120FAE770B540B10C4D297839B1044605
:1095200005F086FA28B1002070BD0E2070BD08201D
:1095300070BDE868062807D20549226801EB800162
:10954000401C0A60E860EEE7042070BD6430002033
:109550004839002010B558B103684BB142683AB1A0
:10956000044900200124C8600C70C1E9013210BD1B
:109570000E2010BD64300020002827D0002925D0FF
:10958000134A1278002A21D00A460188112911D0E5
:10959000302907D0322909D0332917D1011D1046AF
:1095A00004F034BE011D104604F0F4BE011D104647
:1095B00004F03CBD8088B2F8CA12884206D100206F
:1095C00082F8C8024FF6FF70A2F8CA027047000086
:1095D0006430002048B1084A137843B1D26832B1F0
:1095E00090F8C8222AB1112070470E207047082039
:1095F000704701F011B8000064300020F8B502880F
:10960000011D002304461F2A4CD017DC304D102AC0
:109610001ED03048304E801BC008032606EB0040A9
:10962000112A30D0132A37D01B2A2BD109790229CD
:1096300028D1BDE8F84029A103F0B6BB212A3AD0D1
:109640003B2A41D0562A1DD1A088132176DF2CE079
:10965000A1880022294800F009F908B1FFF764FC4D
:10966000072000F0DBFB08B1FFF75EFC1848A1887B
:109670000830FFF7AFFF08B1FFF756FC0120287054
:10968000A088A880F8BD2B700B790A8801B01CA1B6
:10969000BDE8F04003F093BB0023A0881A46852163
:1096A0007FDF02E031F8040B75DF0028EAD0BDE867
:1096B000F840FFF739BC0093A08869468FDF002887
:1096C000E0D0FFF731FCF8BDA088132176DFECE78E
:1096D000382A0020C409030044090300436F6E6E5A
:1096E000656374696F6E205265717565737420745B
:1096F000696D6564206F75742E0000008034002051
:10970000446973636F6E6E65637465642E20636F66
:109710006E6E5F68616E646C653A20307825782CD7
:1097200020726561736F6E3A2030782578000000F2
:1097300010B51A4C0188606810290ED011292BD160
:10974000401E606028D1FFF73DFB002824D021682F
:10975000002921D0BDE810400847D0B900210122DE
:10976000084600F039FB08B107280FD10722022173
:10977000012000F031FB08B1072807D104220221A3
:10978000002000F029FB20B1072802D0216801B198
:1097900088476068401C606010BD00005C3000209D
:1097A00070B506461A481B4A0D46801AC00809784B
:1097B000032202EB004459B1012922D0022926D10B
:1097C000204615A103F0F0FABDE8704005F028BB73
:1097D000204615A103F0E8FA698805F10E0230462B
:1097E00000F044F808B1FFF79FFB304600F04AF95B
:1097F00008B1FFF799FB2046BDE870400FA103F0C8
:10980000D3BAA989A868BDE8704000F071B970BDED
:10981000C409030044090300446973636F6E6E65F5
:10982000637465642E000000446973636F7665722B
:109830007920636F6D706C6574652E00436F6E6E7A
:10984000656374656420746F206465766963652060
:1098500077697468204E6F72646963205541525471
:1098600020536572766963652E00000050B1418017
:109870002AB15388C380138883809288028140690B
:1098800002F076B80E20704730B5144B0D46040038
:109890000FCB85B08DE80F001ED0EDB1A868D8B110
:1098A0002146684662DF002814D120788DF8120026
:1098B0000120ADF810004FF6FF7060802868E0606E
:1098C000686820610020A0802081A868606104A8E9
:1098D000FFF720FE05B030BD0E20FBE7D8FB0200ED
:1098E00030B5024685B008002DD0002A2BD0418823
:1098F0004FF6FF74A14226D09388994223D1158850
:10990000112D14D0392D1ED1818800291BD05389E7
:109910008B4218D1C168002915D001218DF80010A3
:1099200002F110010291D189ADF80C1008E08B42D0
:1099300009D1C168002906D002218DF800104480A9
:10994000C2686946904705B030BD30B585B00C4659
:10995000054614216846FDF7ABFD207804F10E01A1
:10996000002830D1A08801282DD1A0792A789042F2
:1099700029D1002217E002EBC20031F81030022B8F
:1099800002D0032B0ED105E001EB40000089ADF8B9
:10999000120007E001EB40000389ADF80E3040896A
:1099A000ADF81000521C207A9042E4D8E8680028F4
:1099B00009D06088ADF8020000208DF80000EA6848
:1099C00069462846904705B030BD000070B588B0A4
:1099D00015460E46040012D020216846FDF768FDAA
:1099E00019481A49401AC008022101EB0040F42D21
:1099F00007D917A103F0D8F9072008B070BD0E20D1
:109A0000FBE76288A2F57F43FF3B18D0154ACDE9FA
:109A1000022401208DF800002289ADF812208DF873
:109A20001010ADF816500022ADF8142006968DF8EF
:109A3000110062886946606901F0D2FFDDE70AA182
:109A400003F0B2F90820D8E76409030044090300D1
:109A5000436F6E74656E7420746F6F206C6F6E67E9
:109A60002E000000A9AB0200436F6E6E656374693F
:109A70006F6E2068616E646C6520696E76616C69DA
:109A8000642E000010B58AB058B34188A1F57F421A
:109A9000FF3A28D0C18831B3044620216846FDF73B
:109AA00007FD01218DF8201000208DF821000F4ABC
:109AB000CDE902248DF80010E288ADF812200222D0
:109AC000ADF81620ADF814008DF8101008A88DF828
:109AD0001110069062886946606901F081FF0AB042
:109AE00010BD0E20FBE70820F9E70000A9AB02003B
:109AF0002DE9F0410F460646134814490025401A47
:109B0000C008012101EB00480FE0705DFFF722FB68
:109B1000040009D0112CF8D040462A460CA103F0CD
:109B200047F92046FFF700FA6D1CBD42EDD3F0194E
:109B300010F8010C0D2804D10A20FFF70BFB1128A7
:109B4000FAD0BDE8F0810000C40903004409030015
:109B50006170705F756172745F70757420666169A1
:109B60006C656420666F7220696E64657820307859
:109B7000253034782E0000000149085C7047000051
:109B8000FBFA0200084908B5085C0090684602F03C
:109B900095FED0F810050099C84010F0010000D0E3
:109BA000012080F0010008BDFBFA02002DE9FC4114
:109BB0000646C0074FF000050ED0104F00240122CA
:109BC000385D009500231146019502F0BDFD641C2F
:109BD000042CF4D300F04EF8B0070DD5074E002446
:109BE000361D0022305D032300951146019502F0D9
:109BF000ABFD641C042CF4D3BDE8FC81F7FA020031
:109C0000094908B5085C0090684602F057FED0F894
:109C10000425009B0121994021EA0203C0F8083580
:109C20001140C0F80C1508BDF7FA02000249085CA3
:109C3000012102F0B0BE0000F7FA02000249085C00
:109C4000002102F0A8BE0000F7FA0200084908B59A
:109C5000085C0090684602F031FED0F804050099D7
:109C6000C84010F0010000D0012080F0010008BDC4
:109C7000F7FA020010B500242046FFF7D7FF641C56
:109C8000042CF9D310BD10B500242046FFF7D6FFF1
:109C9000641C042CF9D310BD10B50246064B4FF0DE
:109CA000FF3000215C5C944201D1084610BD491C84
:109CB0000429F7D310BD0000FBFA020070B50C4E6A
:109CC0000C004FF0000530600BD0012000F06AF866
:109CD00008B1022004E0002000F064F800B10B207D
:109CE0002070706810B9FFF76DF80546284670BD02
:109CF0005C30002010B5002000F0CAF908B1062839
:109D000006D1012000F0C4F908B1062800D10020D6
:109D100010BD00002DE9F0470D468146FFF7BCFF5E
:109D20000446042836D2DFF874801B481C4EA8F184
:109D30000C0725B3012D0ED0022D2BD104EB4400CE
:109D400030444578002D25D0B968002922D0284616
:109D5000BDE8F047084704EB4401755C0E44717898
:109D600049B10E4A4FF48041093A8068FFF768F91B
:109D700008B987F80390B17808F80410E2E7806822
:109D8000FFF776F904EB4401314418F804008D78AC
:109D9000A842D7D0BDE8F08700FB02005830002071
:109DA00018390020042801D2FFF7ECBE00207047CC
:109DB000042804D00A280CD1002003F0B7B90548C4
:109DC0001321408876DF082803D0002801D0FFF750
:109DD000ABB870478034002070B50023042810D23F
:109DE0000D4D00EB4004012A02D101290CD00022C4
:109DF000094E00EB4000304461B1012906D0022930
:109E000006D00723184670BD0E30C2B22A55F9E7B6
:109E10004270F7E78270F5E718390020044A0146DE
:109E200000201279D20702D0084600F04DB87047E2
:109E30004C30002070B506461E480024C0E9016180
:109E4000B00720D50025012211462846FFF7C4FFA0
:109E50006D1C0446042D02D2002CF4D013E094B9FA
:109E600040F2333204211448FEF7DCFF04000AD12B
:109E7000FEF7C6FF040006D10F48104A0021001F5C
:109E8000FFF7A4F80446F00712D00120FFF78EFE7A
:109E900074B909480A4A00210C38FFF797F8040002
:109EA00006D10548074A01210838FFF78FF8044614
:109EB000204670BD4C3000200CFB02009DA102002A
:109EC00045B10200FB8D02002DE9F05F6E4C0546A6
:109ED00000266078B34618B184F801B001F01AF991
:109EE0006A4F4FF47A694FF4C87A4FF00108182D81
:109EF00069D2DFE805F00C1313384754696E727BA2
:109F0000727BC58484848484B3B6B9BCC5C501F0B2
:109F100001F93868FFF7ACF806465CE00020FFF76F
:109F200095FE00284FF0000008D0FFF77FFE022DBD
:109F300002D14FF4E16008E0484606E0FFF77EFEFC
:109F4000022D01D1C82000E05046410CC0034FF45F
:109F50007A72801841F10001257052000023FDF74C
:109F600041FA01462AE00020FFF770FE00284FF07A
:109F7000000004D0FFF75AFE4FF44870E5E7FFF702
:109F80005DFEDFE70020FFF761FE00284FF00000D4
:109F900002D0FFF74BFECFE7FFF750FED4E70020DB
:109FA000FFF754FE00284FF0000002D0FFF73EFEFE
:109FB00001E0FFF743FE257040F6CD4100223868EE
:109FC000FFF73EF8064646E00020FFF719FE257031
:109FD00008E0002051E025703DE084F80180012078
:109FE000FFF70EFE002240F26661E8E784F8018088
:109FF0000120FFF705FE00224FF40051DFE77868EB
:10A00000FFF736F80646D5F1110000D02EB1022038
:10A01000FFF70CFE84F802B01DE0012816D980B2CB
:10A02000C8214843C117C90341EA5041C0034FF456
:10A030007A72801841F1000152000023FDF7D2F935
:10A04000014600227868FEF7FBFF06460220FFF774
:10A05000F5FD84F802803046BDE8F09F01F05AF823
:10A06000B9E701F057F8B4E701F054F804E001F063
:10A0700051F80020FFF7E2FD0120FFF7DFFDAAE71E
:10A08000FFF701FEA7E700004C30002000FB0200B4
:10A09000012105F0ADBC00002DE9F84F0546861CF6
:10A0A00000208DF8000091460F464FF0010A6846E7
:10A0B000FFF77AF81B4C04F21C4860683860D4E95A
:10A0C0000101194F401A3968081A0EE00121404673
:10A0D00001F00EFB01F04CF80146404601F008FB90
:10A0E000D4E90101401A3968081A401C8642EDD8AB
:10A0F000B9F1000F03D0052065F3891002E00620B6
:10A1000065F39F5061683A68114004EB8101C860B3
:10A110006068304460609DF80000FFF769F85046C1
:10A12000BDE8F88F583D00201C31002070B50D4669
:10A1300004460A2902D10D21FFF7F8FFA068226822
:10A14000411CA1601554D4E90101814204D3204689
:10A15000BDE8704001F0E5BE70BD000004488168B4
:10A160004068814201D10120704700207047000003
:10A17000583D0020034630B5074800210478426866
:10A1800006E000BF02EBC10005789D4203D0491CE8
:10A19000A142F7DB002030BD98300020007802217A
:10A1A000FFF7B8BD05494FF0FF32082841F82020DD
:10A1B00002D3084480F8582070470000743900200A
:10A1C000F0B54FF0FF3512B10023082601E0082357
:10A1D0000C260C4C05E000BF54F823707F1C04D003
:10A1E0005B1CB342F8D32846F0BD26185DB286F852
:10A1F000305044F82310002AF5D1E11881F85800B6
:10A20000F1E70000743900200249084490F9300059
:10A21000704700007439002030B589B00D460446FF
:10A2200020216846FDF744F994F8C602002300EBAC
:10A230008001C1EB801094F8C51204EB400041B1DD
:10A24000491EC9B201EBC10100EB4101498A491C19
:10A2500000E0C188008961F30F0360F31F4303200E
:10A260008DF800000548CDE90204054804932A460C
:10A270006946806801F0B4FB09B030BDC9A5020091
:10A280006430002010B578210348FDF711F9024928
:10A29000FF208870002010BD9836002070B5084C53
:10A2A000050009D010342168002907D00868206013
:10A2B000496828468847F6E70834F4E770BD00008F
:10A2C00060390020054A012120B1012805D1917093
:10A2D000FFF7E4BF51700020FAE7704760390020B3
:10A2E00010B5D0E90234D1E90220D11AA04101D33E
:10A2F000012010BD002010BD10B5024600201388BB
:10A3000006E0546834F810408C4203D0401C80B200
:10A310008342F6D810BD000070B588B00646002014
:10A3200005900690ADF81410ADF81610019002904B
:10A3300001AA05A9304690DF050021D003F068FA94
:10A340000346114811493246401AC108012000EB6A
:10A35000014004460E4902F032FDBDF8042012B956
:10A36000BDF8060028B1BDF80630204609A102F06C
:10A3700026FDBDF808201AB12046164902F018FD46
:10A3800008B0284670BD00004C09030044090300D2
:10A39000D00003005468652072657175657374653B
:10A3A000642054582F5258207061636B6574206C80
:10A3B000656E67746820697320746F6F206C6F6EB0
:10A3C000672062792025752F2575206F6374657469
:10A3D000732E00001C01030001460148FFF7B5BAC7
:10A3E000803400202DE9F04389B00F4605469146A0
:10A3F00020216846FDF75CF895F8C60295F8C5423D
:10A4000000EB8001C1EB801005EB400604EBC400BB
:10A4100006EB40013279601C0A31904232D108AB20
:10A420000022284600F044FE78B310E0401EA0420F
:10A4300001D1002004E004EBC40006EB40001C3016
:10A440008046024608AB284600F032FE90B100205C
:10A45000387004208DF8000008984A46CDE9035072
:10A460000C4802900C486946806801F0B9FA09B0BE
:10A47000BDE8F08395F8C5024146401C641C85F890
:10A48000C502E4B23079A042D0D801203870002053
:10A49000EDE70000C9A502006430002070B500247B
:10A4A0000F4D10E0686800EBC406307803F0D8FA6E
:10A4B0007178012901D0012100E00021414030786C
:10A4C00000F084FA641C28788442EBDBD5E90401AF
:10A4D000084303D0BDE8704004F080BF70BD0000A9
:10A4E0009830002030B59FB00C4605467C21684668
:10A4F000FCF7DEFFADF8024003208DF800000448B1
:10A5000001954168002901D0684688471FB030BDD9
:10A51000643000202DE9F041044690F8C6028846D8
:10A5200000EB8001C1EB801004EB4006174630467B
:10A5300004F07EFA050042D0D4F8CC0206283ED2C0
:10A5400004EBC0107622A0F8D272D4F8CC023146C7
:10A5500004EBC01000F53570FCF791FF0026B8F150
:10A56000000F06D0D4F8CC0204EBC01080F8D06203
:10A5700006E0D4F8CC12022004EBC11181F8D0021D
:10A58000D4F8CC0204EBC010C0F84C53D4F8CC0281
:10A590000C4D401CC4F8CC02E96888420FD1274614
:10A5A000002407E007EBC41101F53470D1F84C1317
:10A5B0008847641CE8688442F4D3C7F8CC62BDE8DD
:10A5C000F081000064300020F0B515469FB00022F5
:10A5D00081F8C822074691F8C6020C4600EB8002BB
:10A5E000C2EB801001EB400004F022FA060009D013
:10A5F0007C2208496846FCF742FFADF802506846E5
:10A600000197B0471FB029462046BDE8F040FFF74C
:10A6100069BF00002CFB0200F0B50D4689B004466E
:10A620004FF4BA61FCF744FF20216846FCF740FF75
:10A63000154E2946B06801F09BF9002821D1A4F8F5
:10A64000CA52C4F8CC0284F8C70284F8C60284F85F
:10A65000C5020E4801272A460068206002208DF8B6
:10A660000000ADF810702068CDF812000848CDE960
:10A6700002046946B06801F0B3F9002801D184F8FA
:10A68000C87209B0F0BD00006430002048390020D5
:10A69000C9A5020010B50021024801F039F880F385
:10A6A000100010BD744100204FF480328A400168D0
:10A6B000C1F848230068C0F8082370474FF4A0721F
:10A6C00002EB810189B200F0F1B92DE9F0410546B4
:10A6D0000E464FF4A07000EB860081B228684FF45C
:10A6E0008034B440984622F07F47C0F80843286879
:10A6F000C0F84843286802F004FE286800EB860092
:10A70000C0F840752868C0F84443B8F1000F02D083
:10A710002868C0F80443BDE8F0810068D0F804055B
:10A720007047000070B54379234C44F823204279E8
:10A73000231D03EBC202224C1579204A121BD408B8
:10A740002DB10825022000EB04401EA130E0056871
:10A750000A88C5F8082590F904208978002A4FEA6C
:10A76000411104DB02F1E02282F8001405E002F05E
:10A770000F0202F1E02282F8141D90F90410012268
:10A78000002909DB01F01F0502FA05F549098900D6
:10A7900001F1E021C1F800514179002503EBC1012D
:10A7A0000A71417943F83100032000EB04400EA107
:10A7B00002F0FAFA284670BDF0300020A409030028
:10A7C0004409030052544320696E7374616E6365DB
:10A7D00020616C726561647920696E697469616C6D
:10A7E000697A65642E0000005254433A20696E690C
:10A7F0007469616C697A65642E00000090F9040048
:10A80000002809DB00F01F0201219140400980006F
:10A8100000F1E020C0F8001270470A46022100F063
:10A82000CBB84FF4827100F041B90068012101609A
:10A83000704700680121416070472DE9F05F0746CD
:10A840000C464FF4A07000EB84001FFA80FA3868C1
:10A850004FF48036A6409B4622F07F45C0F84863FF
:10A860003868C0F808633868D0F8048500EB8402C3
:10A87000D2F84095C2F840855146386802F041FD53
:10A88000A9EB080020F07F40012806D1102003F03A
:10A890002BF85146386802F034FD3868D0F804854A
:10A8A000C0F84463A5EB080121F07F413868012915
:10A8B00000EB840010D0C0F840553868D0F804157B
:10A8C0006FF07F4C6A1A521E22F07F42ACEB0B03F2
:10A8D000934217D362B118E06D1CC0F840551020A8
:10A8E00003F002F83868D0F8040540450AD10CE0BE
:10A8F00000EB84006D1CC0F840553868D0F80405A2
:10A90000884202D00D20BDE8F09F01223146384632
:10A9100000F052F80020F6E72DE9F843104D0F46FD
:10A9200080461E4691466946286800F0ACFE040049
:10A9300014D01C21FCF7BCFD01202071C4F8149038
:10A94000380BC4F80080C4E902606946286800F04A
:10A95000BBFE04F01BF80020BDE8F8830420FBE7F1
:10A9600018FE020030B50446006887B00D468068C6
:10A9700000281FD018216846FCF79AFD0195A068B1
:10A980000590207910B1012810D107E001208DF841
:10A99000000020690290E068039005E002208DF835
:10A9A0000000E068000302906069049020688168FC
:10A9B0006846884707B030BD0368C3F84413002ACF
:10A9C00002D00068C0F80413704700002DE9F84F6A
:10A9D0000E463449804601EB5001C007097801D08A
:10A9E0000F0901E001F00F074FF000094246012076
:10A9F0004946FCF728FDDFF8B0A004460D46052FB8
:10AA00004ED2DFE807F003161B282C00002E47D09B
:10AA10000121404604F0FCFB8DF800906846FEF7EB
:10AA2000C3FB5046D0E904120C431543CAE9044560
:10AA300032E00EB1022114E0002112E04EB10321F8
:10AA4000404604F0E5FB4046BDE8F84F012104F024
:10AA5000B3BF012105E0002E22D1042101E02EB177
:10AA600003214046BDE8F84F04F0D2BB0021404628
:10AA700004F0CEFB0021404604F09EFF8DF80090CC
:10AA80006846FEF791FB5046E243D0E904341A4091
:10AA900024EA0501CAE904219DF80000FEF7A8FB9D
:10AAA000BDE8F88F503A00209830002010B50068BB
:10AAB00042581AB102F025FC012010BD002010BD43
:10AAC000826883881A4003689A5C0A708168491C0E
:10AAD00081607047C26883881A4003689954C168CE
:10AAE000491CC160704710B50446C0B2FEF732FB86
:10AAF000204610BD014643680D480E4A801AC00822
:10AB0000032202EB004013B10B4902F04DB90A7861
:10AB1000012A07D0022A09D18B680A6907A100BF60
:10AB200002F04DB98B680A6912A1F9E7704700007D
:10AB3000C409030044090300A0FF02002D2D3E209C
:10AB40004576656E742072656365697665643A2042
:10AB50006572617365642025642070616765206695
:10AB6000726F6D206164647265737320307825782C
:10AB70002E0000002D2D3E204576656E74207265F6
:10AB80006365697665643A2077726F746520256421
:10AB900020627974657320617420616464726573E6
:10ABA0007320307825782E000969002900D00847E5
:10ABB0007047000070B508880D46A0F52061773910
:10ABC00016D10C480C49401AC108032000EB01447F
:10ABD0000AA1204602F0E8F8A88810A1C01E82B29F
:10ABE0000D48134642802046BDE8704002F0E7B8A9
:10ABF00070BD0000C40903004409030041545420FF
:10AC00004D54552065786368616E676520636F6D8C
:10AC1000706C657465642E00382A0020426C6520D3
:10AC20004E5553206D61782064617461206C656EAF
:10AC30006774682073657420746F203078255828F5
:10AC40002564290010B50949094800F0D8FD08B16C
:10AC5000FEF76AF9F721064800F0C5FD002803D089
:10AC6000BDE81040FEF760B910BD0000B5AB0200B2
:10AC70009834002070B50D4601F11004C98A1029DE
:10AC800001D9092070BD02F0ACF9686030B1E288EA
:10AC90000023A16802F00BFA002070BD042070BDF3
:10ACA00070B50D4601F1100489690988102901D990
:10ACB000092070BD891C02F094F9686068B1002316
:10ACC0000222A16802F0F3F9A068E1680223028879
:10ACD000686802F0ECF9002070BD042070BD00002F
:10ACE00010B50B48FFF719FD094A083AD2E90434B8
:10ACF000C018D2E9063244F10001C31A71EB020216
:10AD000004D24FF08072801841F1000110BD0000A4
:10AD1000B8300020F0B5414D04468DB068780F463C
:10AD2000012811D0E878012811D03E482A783C4B00
:10AD30000178142A33D339B1002101701868FEF765
:10AD400097F939A0FDF7B8FA00200DB0F0BDA8784A
:10AD5000062205EB0011601C0E31FCF7BBFB00283E
:10AD6000F2D13B483B49401AC108032000EB0140A7
:10AD7000064639A102F018F8294A0123121D394666
:10AD800020468CDF20B1304638A102F00DF803E0F8
:10AD9000A9783AA0FDF790FAFFF774FAD4E70129F1
:10ADA00006D0012101700022C9031868FEF748F996
:10ADB00000260AE005EB06110622601C0E31FCF7A6
:10ADC00089FB0028C1D0761CF6B22878B042F1D8B1
:10ADD000C0B205EB001054F8011FC0F80E10A18896
:10ADE0004182202105A8FCF763FBA07801AE6379BE
:10ADF0002279E17886E80F0060780090237827A216
:10AE0000202105A8FDF718FB297805AA2BA0FDF73E
:10AE100053FA2878401C287096E7000098360020E6
:10AE2000BCFA02003C300020506C656173652073F1
:10AE3000656C656374206120646576696365207460
:10AE40006F20636F6E6E656374203E3E200D0A00B6
:10AE5000C409030044090300537461727420636FD2
:10AE60006E6E656374696E672E2E2E00636F6E6E54
:10AE7000656374206661696C65642E00436F6E6E55
:10AE80006563746564204445565B25645D20737575
:10AE900063636573732E0D0A00000000253032587D
:10AEA0003A253032583A253032583A253032583A1D
:10AEB000253032583A25303258000000444556209B
:10AEC0005B25645D3A2025730D0A000010B5C0B201
:10AED000FFF750F90446007802F0C2FD01466078A1
:10AEE000012801D0012000E0002090EA010F08D0E5
:10AEF0000449D1E90401084303D1BDE8104004F03E
:10AF00006DBA10BD9830002010B50A4941600A485A
:10AF100000F0EBFB58B902F0DBFB07491C238C2245
:10AF2000087404488C39001F006800F099FB002069
:10AF300010BD00001CFE0200AC3B00202DE9FC5FB0
:10AF40000E008346DDE90C47C6F1000098469246A4
:10AF5000814600D40846012503E000BF90FBFAF0CB
:10AF60006D1C5045FADAA84500D9454624B1002E9B
:10AF700001DB780700D5641EB80702D5B8F1000FD1
:10AF80000AD0F80708D13CB1A54205D22021584685
:10AF9000641EFFF7CBF8F6E7002E02DA4E462D21AD
:10AFA00002E0780703D52B215846FFF7BFF807F0DA
:10AFB000030002280BD1B8F1000F08D13CB1A54223
:10AFC00005D230215846641EFFF7B0F8F6E7CDE908
:10AFD0000047434652463146584604F093FCBDE8CC
:10AFE000FC9F000070B50D46044600684FF4887160
:10AFF00002F02EFC4FF49071206802F029FC4FF40F
:10B000009271206802F024FC4FF4A271206802F0D3
:10B010001FFC4FF4AC71206802F01AFC2068124942
:10B02000C0F804132068690740F30730090E0028B0
:10B0300004DB00F1E02080F8001405E000F00F00D0
:10B0400000F1E02080F8141D206840F3073000284C
:10B0500009DB00F01F02012191404009800000F14E
:10B06000E020C0F8001170BD10034200024600202D
:10B070001268530713D502F00300012802D00228FA
:10B080000CD105E0C2F383100B68801C184404E067
:10B090000223086803EB92521044086001207047B5
:10B0A0000248007A002800D001207047AC3B002005
:10B0B00010B509892AB1D088491C814218D10020D5
:10B0C00010BD90F8C62202EB8204C4EB821200EBA2
:10B0D000420212899142F2D0491C198090F8C6129E
:10B0E00001EB8102C2EB811100EB4100008902E01B
:10B0F0001980D088401E5880012010BD007DC0F30B
:10B10000C100012803D0032801D00020704701208E
:10B11000704700000A4810B5807860B1002401E053
:10B12000022C06D02046FEF781FD641C042CF7D3C8
:10B1300010BD0324F6E7BDE81040FEF79BBD0000FC
:10B140004C30002003480179C90702D00078FEF78F
:10B15000BBBE70474C300020F72101801721418091
:10B16000002101714171FB2181711B21C171704767
:10B170002DE9FF410026244800F0B4FA2248001FC0
:10B18000074600F0AFFA214C2149A06800900D68F5
:10B1900000E000986946284004EB80000C30FFF77F
:10B1A00065FF0028F5D101AA009901EA050304EB27
:10B1B0008303491CDB6842F82030401C00910228C0
:10B1C000F2D3019800F0030001280BD0022810D11F
:10B1D0000198032101EB90500099BDF80A6001EB42
:10B1E000900005E00198BDF80A60C0F383100844A0
:10B1F0000090384600F073FA08B10098A06004B0DF
:10B200003046BDE8F081000070410020583D00202C
:10B210001C3100208AB04FF48041002001F046FE2E
:10B2200008B1FDF781FE01F095FCFDF7DBFE08B1EA
:10B23000FDF77AFE18223F496846FCF720F93E48A0
:10B2400006903E494FF48070CDE90701099007232D
:10B250003B4A06A96846FDF72BFF08B1FDF764FEDF
:10B2600038490120FEF7E6FD08B1FDF75DFE6946AD
:10B270000020FEF723FD08B1FDF756FE334D32489E
:10B28000CDE9000500246846FEF764F908B1FDF732
:10B290004BFE01F015FF08B1FDF746FE02F0CCF9B8
:10B2A00008B1FDF741FE69460120009402F03AF82A
:10B2B00008B1FDF739FE684602F0CCF808B1FDF799
:10B2C00033FEFFF7BFFC224800902248CDE901057C
:10B2D00069462148FEF7D8FA08B1FDF725FE039428
:10B2E00001208DF80C001C480194009402948DF804
:10B2F00004401A4A69462C3000F031FC08B1FDF7D1
:10B3000013FEFDF745FE16A0FDF786F81B481C4905
:10B31000401AC008032101EB00401AA101F044FDCE
:10B3200000F0D2F803F07CFD00F096F801F020FC6C
:10B33000FAE70000A4FA02008032002080330020E7
:10B3400049F40200B19D0200D9A302001030002090
:10B35000A197020029E00200803400201DED0200C8
:10B36000424C45205541525420446F776E676C65BE
:10B3700020737461727465642E0D0A00C4090300A1
:10B3800044090300424C4520554152542063656EE8
:10B390007472616C206578616D706C652073746186
:10B3A000727465642E0000002DE9F047C5881E1DEB
:10B3B000B6FBF5F78946B6FBF5F1044605FB176CBD
:10B3C000407916686843DDF820A0F718001F87420F
:10B3D00000D9C61A166001E02468491E0029FBD175
:10B3E000A5EB0C078846B74216D818E004EB0C0012
:10B3F000001D09EB0803BAF1000F3A4602D00146DE
:10B40000184600E01946FCF73AF82468F61B4FF09E
:10B41000000CB844B54201D9374600E02F46002E53
:10B42000E4D1BDE8F087000030B5024651B101F02B
:10B4300051FD0021074C08E034F821301568AB427B
:10B4400002D11160002030BD491C8142F4D3052097
:10B4500030BD00000000000010B5114C60780128DC
:10B460001CD110481049401AC008032101EB0040CC
:10B470000EA101F099FC00206070D4F80200C4F81D
:10B480000A00E088E081552004F1080108220870D4
:10B49000BDE810404FF4482000F0B4B810BD0000E3
:10B4A0003C300020C409030044090300777269742A
:10B4B00065207363616E207265636F726420696ECC
:10B4C00020666C6173682E0030B52748274995B017
:10B4D000401AC108032000EB0144254A25A120465B
:10B4E00001F066FCFEF7CEFE2148234A00210C380D
:10B4F000FDF76CFD08220DA94FF4482000F06CF810
:10B50000204608221DA101F053FC224D0D9805F1A3
:10B510000804A8600E98E8602078552822D12021E0
:10B5200005A8FBF7C5FF20790DF1040CE379A2799A
:10B5300061798CE80F00E0780090A37816A22021B2
:10B5400005A8FCF779FF05A91BA0FCF7B5FE21486B
:10B550000121C17000218170D5F80A10C0F80E10C9
:10B56000E989418215B030BDC409030044090300D4
:10B57000C8FA02002573000049EE02007363616E91
:10B580005F7265636F72645F742073697A653A20D5
:10B59000256400003C300020253032583A253032F6
:10B5A000583A253032583A253032583A25303258F8
:10B5B0003A2530325800000044656661756C74208D
:10B5C000636F6E6E656374204445563A2025730D93
:10B5D0000A0000009836002010B571B113460A46E3
:10B5E0000146074800F0A4FE041E01D0FDF79CFCB4
:10B5F000034804F0F1F9204610BD012010BD000001
:10B6000078310020F8B515460C0006461CD00146DE
:10B61000002301220D4800F07DFD08B1FDF784FCF8
:10B620000A4804F0D9F9002000902B462246314602
:10B63000064800F09BFF041E01D0FDF775FC03488F
:10B6400004F0CAF92046F8BD0120F8BD7831002089
:10B6500010B5FBF72AFE08B1002010BD112010BD67
:10B6600010B531B1B2FBF3F403FB14241CB1092073
:10B6700010BD0E2010BD01600021416081608281FB
:10B68000C381084610BD70B50C460546FBF7C2FDE8
:10B69000002802D021882868084470BD10B50A88A7
:10B6A00049888A4203D1FBF7F7FD012010BD002035
:10B6B00010BD70B50C460546FBF7D1FD002802D041
:10B6C00061882868084470BD10B50A8849888A4294
:10B6D00003D1FBF7BBFD012010BD002010BD0021F0
:10B6E00000F00CB8012100F018B8012100F00BB8EF
:10B6F00008B56A46FBF725FE009808BD08B56A46FE
:10B70000FBF705FE08BD08B56A46FBF7F3FD08BD6B
:10B7100008B56A46FBF7E2FD08BD08B56A46FBF7C7
:10B72000E9FD009808BD08B56A46FBF717FE0098CA
:10B7300008BD38B5044600258DF800506846FDF771
:10B7400033FD21686268086890420ED9401E086087
:10B750000178238AE26801FB0325227A2168101A06
:10B76000C0B20A79824200D208719DF80000FDF74C
:10B770003FFD284638BD38B5054600208DF800004D
:10B780000C466846FDF710FDE868298A201AB0FBD0
:10B79000F1F12A681068431C136001709DF80000E5
:10B7A000FDF726FD38BD10B530B1017A4268036857
:10B7B000891AC9B21A6006E00E2010BD03681A6823
:10B7C000541C1C601170491EC9B2F7D200680021D8
:10B7D0000171084610BDC20800F007030120895C12
:10B7E00098400840704728B1A1F11702E12A03D31D
:10B7F000072070470E20704741800020704710B529
:10B8000060B10161F72120F8021B20F8021BFB2127
:10B8100000F8021BFFF7A0FC002010BD0E2010BD99
:10B82000F0B5858893B00C46002D39D101880026EB
:10B830003F4F24293BD006DC102909D011290CD018
:10B84000232958D14FE03A290BD0552953D129E06B
:10B850000146204602F086FC4DE0A01DFFF77CFC6F
:10B8600049E02246408934F8061F814200D8084644
:10B870006080172800D217206080106970B160794D
:10B8800060B1D7E90001CDE90301ADF80E50608841
:10B89000ADF81000136903A9104698476671267128
:10B8A00013B0F0BD0146204602F01EFD23E0011D4D
:10B8B0002C2206A8FBF7E3FDBDF81800BDF81C20FC
:10B8C00004EBC0014A732269AAB1D7E90423CDE988
:10B8D0000423ADF81200487B8DF81400226920463D
:10B8E00004A9904707E0017A207B884200D20146F4
:10B8F0002846FEF711FDA07A0028D1D0E18828461D
:10B90000A5DF012580B11128CAD001F081FF0246D0
:10B910000848094913B0401AC00805EB0040BDE8CB
:10B92000F04006A101F044BAA672E572B8E7000043
:10B93000A8FB02004C0903004409030073645F6222
:10B940006C655F67617474635F65786368616E6777
:10B95000655F6D74755F72657175657374282920F4
:10B9600072657475726E65642025732E0000000088
:10B970002DE9F0410F4604004FF000050DD003F013
:10B9800023F839462046FEF7B7FC218881421ED1B4
:10B99000002005464FF6FF7609E00E20BDE8F08155
:10B9A000626832F81020B24206D1401C80B2814257
:10B9B000F6D8206901F062FB002021880BE0626864
:10B9C00032F81020B24204D1616821F81070284684
:10B9D000E4E7401C80B28142F1D80420DEE7000099
:10B9E0002DE9F04791460D4604004FF0000742D084
:10B9F000EDB302F0E9FF49462046FEF77DFC2978C9
:10BA0000062902D22188814202D10720BDE8F087B1
:10BA1000A16800EB800601EB860001F0ECFB30B181
:10BA20004946284603F044F808B13846EEE729783D
:10BA3000DFF8488058F821202AB12069B8B129469A
:10BA400090470028E2D1A068294600EB860001F06B
:10BA5000F1FB070006D0297858F8210010B168687A
:10BA600001F0EFFAA068494600EB860000E002E032
:10BA700002F0B0FED9E70E20C8E70000C0FB0200CC
:10BA8000F8B505000C4620D0002C1ED028881128BF
:10BA900006D0A0F130011F2902D950381F2814D830
:10BAA000AE8820463146FEF727FCADF8000021881D
:10BAB00081420AD02988112908D0A16800EB8000B2
:10BAC00001EB8000314602F085FEF8BD62684FF65A
:10BAD000FF7122F810106946E06801F0ABFBF8BD79
:10BAE0002DE9F041044600F1140700F10A05867CB7
:10BAF000007A86B001F10208002814D08BDF1421EF
:10BB00006846FBF7D5FC33462A46394640468CDF6B
:10BB100005218DF800100190002804D0616A0029E9
:10BB200001D06846884706B0BDE8F0814FF4C8717F
:10BB3000018206214181182181810021C181704744
:10BB4000017DA022C2825022028321F0180100222E
:10BB5000428341F00401017501214175704770B5C0
:10BB60000D46040010D00026266066606262EDB1CA
:10BB700028792072287BA074296839B10E2204F13B
:10BB80001400FBF77CFC04E00E2070BD2046FFF79C
:10BB9000D7FFA86830B10168C4F80A104068C4F83B
:10BBA0000E0009E02046FFF7C1FF05E0FFF7C8FFE0
:10BBB0002046FFF7BBFF267204F12800A0641F2077
:10BBC000A4F84C00002070BD2DE9F04F044689B068
:10BBD000002088460746069014216846FBF768FC5B
:10BBE00004F1140004902046FFF788FA010004F1E4
:10BBF0004800059011D002208DF80000CDF8048097
:10BC0000616A68468847002005998ADF41462046D8
:10BC1000FFF766FF09B0BDE8F08FA079002107911A
:10BC20006179834621B301210691824694F80490FC
:10BC30000026B8F81C003546089012E004EB850297
:10BC4000D8F818000899FDF70AFC28B1761CF6B25E
:10BC5000BAF1000F0DD002E0BAF1000F06D16D1C51
:10BC6000EDB24D45EAD3BAF1000F02D04E4501D0F6
:10BC700009E046B19DF8080040F004008DF8080086
:10BC800001207F1C0790CDF80480BBF1000F02D08B
:10BC90000698874203D0079830EA0B0007D00020AF
:10BCA0008DF8000041462046FFF71AFF02E003200E
:10BCB0008DF80000616A09B168468847002005993F
:10BCC0008ADFA7E770B50D46014601F108020C1D99
:10BCD00028460988143586B010291ED01B2907D0A4
:10BCE0001D292DD106B01146BDE87040FFF76CBF8D
:10BCF000064614216846241DFBF7DAFB207801284C
:10BD00001ED1706A00281BD004208DF80000049515
:10BD100020788DF80400716A10E006461421684608
:10BD2000FBF7C6FB06208DF80000201D019020883F
:10BD3000ADF808000495716A002901D0684688476B
:10BD400006B070BD30B585B0040025D0142168461A
:10BD5000FBF7AEFB8BDF2046FFF7D0F9012528B1BA
:10BD6000616A19B18DF800506846884704F14801AE
:10BD700004F114008ADF044608280FD074B1084883
:10BD800008492246401AC00805EB004006A101F010
:10BD90000FF8204605B030BD0E20FBE70020F9E784
:10BDA0005C0903004409030073645F626C655F67AC
:10BDB00061705F7363616E5F73746172742072652A
:10BDC0007475726E656420307825780000F18040CB
:10BDD0000068002800D00120704708B500F18040BD
:10BDE000002101600068009008BD000070B50D4C96
:10BDF0000125207808B185260EE00020A060606053
:10BE00002061E060084801F047FD064601F060FC53
:10BE100008B901F02BFD257001F020FD00B1A570DF
:10BE2000304670BD60390020C5A2020038B500253B
:10BE30008DF800506846FDF7B7F9084CE068401EE1
:10BE4000E060E06828B901F009FD10B901F034FDA7
:10BE5000A5709DF80000FDF7CBF938BD60390020D2
:10BE6000F0B505460478154889B0164640F82420F8
:10BE7000124A08690832A2F10C0742F82400487FF0
:10BE8000385520226846FBF7FAFA04942878385C83
:10BE900048B10EB10A4A00E000226946281D01F0AF
:10BEA000A7FF09B0F0BD0EB1064A00E000226946C6
:10BEB00005F10C0001F050FEF3E70000783000209F
:10BEC000A1F7020045F6020030B40378054CE35CAC
:10BED0001BB130BC001D01F0C1BF30BC0C3001F003
:10BEE000A5BE00007430002030B40378054CE35C3C
:10BEF0001BB130BC001D02F033B830BC0C3001F077
:10BF00000BBF0000743000200FB408B5039900295E
:10BF100004D004AA00926A4600F00FF801B05DF860
:10BF200014FB10B582680446002A05D0D4E9040346
:10BF3000216898470020A06010BD2DE9FC4791467C
:10BF40000C00804676D014F8011B39B125290ED09B
:10BF50004046FEF7EBF820780028F4D198F80C0062
:10BF6000002867D04046BDE8FC47FFF7DABF002055
:10BF7000012221782B291BD02D2902D0302908D16C
:10BF800002E040F0010001E040F00200641C002AE1
:10BF9000EFD100252A290ED02178A1F130020A2AFA
:10BFA00011D205EB850201EB4205641C303DF1E73F
:10BFB00040F00400EAE7D9F800100B1DC9F8003082
:10BFC0000968641C0D44217800232E290BD114F834
:10BFD000011FA1F130020A2A05D203EB830201EB13
:10BFE0004203303BF3E76C290DD068290BD0692957
:10BFF00021D00BDC252918D0582931D063290ED047
:10C00000642915D117E014F8011FECE7702969D0F5
:10C01000732932D075291BD0782909D120E0D9F8AD
:10C020000000011DC9F8001001784046FEF77EF8B7
:10C03000641C90E76CE0D9F800100A1DC9F80020D4
:10C040000968CDE900500A224046FEF777FFEFE786
:10C05000D9F800100A1DC9F8002009680A2206E074
:10C06000D9F800100A1DC9F8002009681022CDE98E
:10C070000050404603F046FCDAE7D9F800100027EC
:10C080000A1DC9F800200E68C00705D112E040461D
:10C09000761C7F1CFEF74AF831780029F7D104E0BE
:10C0A000202140466D1EFEF741F8BD42C0D9002D4B
:10C0B000F6D1BDE74EB13046FBF705FA074604E07E
:10C0C000202140466D1EFEF731F8BD4206D9002DF5
:10C0D000F6D103E04046761CFEF728F831780029B7
:10C0E000F8D1A5E7D9F80000011DC9F800100568CE
:10C0F00030214046FEF71AF878214046FEF716F840
:10C1000008200021CDE90001034610222946B0E7AE
:10C11000BDE8FC872DE9F843884605002C482D49E9
:10C120009946A0EB01004FEAD0004FF001011646FE
:10C1300001EB004424D0286800282CD0002E34D0F5
:10C14000696840464FF010070A68511E11EA080F4F
:10C1500011D1014672432846FCF728FE00282ED054
:10C1600028684B463246046901B041462846A44639
:10C17000BDE8F04360472046174B18A2009722E025
:10C180000E2000902046144B1EA220A100F01FFE9E
:10C190000E20BDE8F8830820009020460E4B26A212
:10C1A0001AA100F014FE0820F3E7092000902046B1
:10C1B000094B24A215A100F00AFE0920E9E7064B6D
:10C1C000214A2046009711A100F001FE1020E0E76F
:10C1D000BC0903004409030003FE020061646472A9
:10C1E0005F69735F706167655F616C69676E6564E5
:10C1F00028705F66732C20706167655F616464728C
:10C2000029000000705F6673000000002573206342
:10C210006865636B206661696C656420696E2025C2
:10C2200073282920776974682076616C75652030E1
:10C230007825782E00000000705F66732D3E705FD9
:10C24000617069006C656E00AC05030038B50300D1
:10C250001148124D4FF00E04A0EB05004FEAD0003C
:10C260004FF0010505EB004009D061B119600C6881
:10C2700001B0A446BDE83040114618466047084B5F
:10C2800008A2009402E0064B08A2009409A100F065
:10C290009EFD0E2038BD0000BC09030044090300C8
:10C2A000B8FD0200705F667300000000705F61708F
:10C2B00069000000257320636865636B206661690F
:10C2C0006C656420696E202573282920776974685D
:10C2D0002076616C756520307825782E000000008E
:10C2E0002DE9F04128B1016819B1C969BDE8F041F3
:10C2F00008470D4D0D480024461B14270DE000BFD4
:10C3000004EB840005EB8000016829B1C969884706
:10C3100010B10120BDE8F081641CB6FBF7F0A0422B
:10C32000EED80020F6E70000783100208C310020A4
:10C330002DE9F843904689462F49304A0500A1EB84
:10C3400002014FEAD1014FF001021E464FF00E00EC
:10C3500002EB01441ED0B8F1000F20D0286840B392
:10C36000002E30D04846FCF71BFD1027002834D0A3
:10C37000324649462846FCF719FD002832D0286885
:10C3800033464246846801B049462846A446BDE883
:10C39000F043604700902046194B1AA203E000903A
:10C3A000174B204619A21BA100F011FD0E20BDE87D
:10C3B000F883082000902046114B21A215A100F01F
:10C3C00006FD0820F3E70920009020460C4B1FA231
:10C3D00010A100F0FCFC0920E9E72046084B1CA254
:10C3E000009703E0064B20461FA2009709A100F02A
:10C3F000EEFC1020DBE70000BC0903004409030049
:10C40000DEFD0200705F667300000000705F64650F
:10C4100073740000257320636865636B206661692F
:10C420006C656420696E20257328292077697468FB
:10C430002076616C756520307825782E000000002C
:10C44000705F66732D3E705F617069006C656E0091
:10C45000616464725F69735F616C69676E656433A0
:10C460003228737263290000616464725F69735FCC
:10C4700077697468696E5F626F756E647328705F48
:10C4800066732C207372632C206C656E290000008B
:10C49000044801214174007A08B10020704701204E
:10C4A00070470000AC3B0020012801D0032808D1D0
:10C4B0000449002201284A7400D00020087402F0C8
:10C4C00015BA7047AC3B002070B50246022801D077
:10C4D000032A45D1234C207A002841D0012833D0AB
:10C4E000022831D120480023022A006802D0032A02
:10C4F0002AD11BE0E360017911B1012924D10DE0BB
:10C50000D0E90565711B4FF48056B14200D3314626
:10C51000294481614569A9420ED015E00169491C91
:10C520000161426991420FD1237213E0E168491C15
:10C53000E160082908D9E3602372022A0AD00D219C
:10C54000FEF710FA02F03CF9607C28B1BDE87040BB
:10C5500001F0C4B80021F3E7BDE8704002F0C6B9AD
:10C5600070BD0000AC3B0020083100202DE9F84FE1
:10C5700090468A463A493B4A0500A1EB02014FEA40
:10C58000D1014FF00102DDF828901E464FF00E0059
:10C5900002EB01441AD0B8F1000F1CD02868002823
:10C5A00022D00920002E29D069684968B6FBF1F233
:10C5B00001FB1261002926D000902B4B20462BA2B4
:10C5C00035A100F004FC0920BDE8F88F009020465A
:10C5D000254B3CA203E00090234B20463BA22EA11A
:10C5E00000F0F5FB0E20EFE70820009020461E4BE0
:10C5F00038A229A100F0EBFB0820E5E700902046D7
:10C60000194B37A2DCE75046FCF7CAFB102798B15C
:10C610004046FCF7C5FBA0B1324651462846FCF720
:10C62000C5FB98B1CDF80090286833464246C468EF
:10C6300051462846A047C7E720460B4B29A2009742
:10C6400008E02046084B2DA2009703E0064B204649
:10C6500033A2009710A100F0BAFB1020B4E700004D
:10C66000BC09030044090300F0FD020021286C65A9
:10C670006E202520705F66732D3E705F666C61735F
:10C68000685F696E666F2D3E70726F6772616D5F75
:10C69000756E697429000000257320636865636BFB
:10C6A000206661696C656420696E202573282920E5
:10C6B000776974682076616C756520307825782EEE
:10C6C00000000000705F667300000000705F73720E
:10C6D00063000000705F66732D3E705F61706900DB
:10C6E0006C656E00616464725F69735F616C696739
:10C6F0006E65643332286465737429006164647202
:10C700005F69735F616C69676E6564333228287591
:10C71000696E7433325F7429705F7372632900002D
:10C72000616464725F69735F77697468696E5F6280
:10C730006F756E647328705F66732C206465737404
:10C740002C206C656E2900002DE9FF411C46DDE9B7
:10C750000A7815460E46684600F0B0F846EA4501EC
:10C7600041EA840141EA072242EA0841009A00EBCB
:10C770008200C0F80017BDE8FF812DE9FF411C468B
:10C78000DDE90A7815460E46684600F0A5F846EA47
:10C79000450141EA840141EA072242EA0841009A40
:10C7A00000EB8200C0F80017BDE8FF812DE9FF41D2
:10C7B0001C46DDE90A7815460E46684600F09AF8F0
:10C7C00046EA450141EA840141EA072242EA08417A
:10C7D000009A00EB8200C0F80017BDE8FF812DE948
:10C7E000FF411C46DDE90A7815460E46684600F012
:10C7F0008FF846EA450141EA840141EA072242EA0C
:10C800000841009A00EB8200C0F80017BDE8FF81E4
:10C810001CB500220B46009211460192FFF7C6FF9D
:10C820001CBD1CB500220B46009211460192FFF779
:10C83000D6FF1CBD1CB5002100910B4601220191C1
:10C840001146FFF7B3FF1CBD1CB5002100910B463C
:10C85000012201911146FFF7C2FF1CBD13B50C4622
:10C86000684600F039F8009900EB8101D1F8002703
:10C8700022F44032C1F80027009900EB8100D0F883
:10C88000001741EA0441C0F800171CBD3CB50A4C32
:10C89000D4E90034CDE900346B46441808E000BF09
:10C8A00053F82010D1F8205520C2C1F82055401C63
:10C8B0008442F5D83CBD0000E8FB02000168202955
:10C8C00002D24FF0A040704701F01F010160014803
:10C8D00070470000000300500168202902D24FF089
:10C8E000A040704701F01F0101600148704700003F
:10C8F000000300500168202902D24FF0A040704789
:10C9000001F01F0101600148704700000003005062
:10C910000168202902D24FF0A040704701F01F01AA
:10C9200001600148704700000003005042094FF0C9
:10C93000000102D0012A05D102E04FF0FF3101E0F1
:10C940004FF6FF7100F01F00012282400A4201D021
:10C95000012070470020704701B56846FFF7BCFF13
:10C96000D0F810050099C84000F0010008BD01B5DD
:10C970006846FFF7BFFF009A01219140C0F80815F3
:10C9800008BD01B56846FFF7C3FF009A0121914039
:10C99000C0F8081508BD38B501240090684631B1CB
:10C9A000FFF78CFF00998C40C0F8084538BDFFF7B1
:10C9B00085FF00998C40C0F80C4538BD034908B587
:10C9C0000844002101600068009008BD006000403C
:10C9D00002494058012800D0002070470060004004
:10C9E00030B5154A01460020D2F8104423460AE02B
:10C9F000DB681D79854205D1401C0A28F6DB4FF023
:10CA0000FF3030BD1B68002BF2D1431CF9D0CB683E
:10CA10001871D2F8103443B1DB68CC681B6823600E
:10CA2000D2F81024D268116030BDC2F81014C96861
:10CA300000220A6030BD0000583D00207047FBF71F
:10CA400019BB704708B5034A00924023024A00F020
:10CA500005F808BD4DEF0200C03B0020F0B595B0D1
:10CA60001C4615460F4608461A9E00F003FB182187
:10CA700009A8FAF71DFD0E96CDE9095400230822F6
:10CA800003A9384600F00BFB05980690BDF810008E
:10CA9000ADF81C00BDF81200ADF81E0000208DF8A6
:10CAA00021000398082600F00300012802D0022884
:10CAB00018D032E003983346850AC0F3C2008DF8DF
:10CAC000200003980FA9C0F38314A200384600F099
:10CAD000E6FA09A8009006AB22460FA9284600F006
